{
  "_format": "hh-sol-artifact-1",
  "contractName": "SphereXEngine",
  "sourceName": "@spherex-xyz/contracts/src/SphereXEngine.sol",
  "abi": [
    {
      "inputs": [],
      "stateMutability": "nonpayable",
      "type": "constructor"
    },
    {
      "inputs": [],
      "name": "AccessControlBadConfirmation",
      "type": "error"
    },
    {
      "inputs": [
        {
          "internalType": "uint48",
          "name": "schedule",
          "type": "uint48"
        }
      ],
      "name": "AccessControlEnforcedDefaultAdminDelay",
      "type": "error"
    },
    {
      "inputs": [],
      "name": "AccessControlEnforcedDefaultAdminRules",
      "type": "error"
    },
    {
      "inputs": [
        {
          "internalType": "address",
          "name": "defaultAdmin",
          "type": "address"
        }
      ],
      "name": "AccessControlInvalidDefaultAdmin",
      "type": "error"
    },
    {
      "inputs": [
        {
          "internalType": "address",
          "name": "account",
          "type": "address"
        },
        {
          "internalType": "bytes32",
          "name": "neededRole",
          "type": "bytes32"
        }
      ],
      "name": "AccessControlUnauthorizedAccount",
      "type": "error"
    },
    {
      "inputs": [
        {
          "internalType": "uint8",
          "name": "bits",
          "type": "uint8"
        },
        {
          "internalType": "uint256",
          "name": "value",
          "type": "uint256"
        }
      ],
      "name": "SafeCastOverflowedUintDowncast",
      "type": "error"
    },
    {
      "anonymous": false,
      "inputs": [
        {
          "indexed": false,
          "internalType": "uint216[]",
          "name": "patterns",
          "type": "uint216[]"
        }
      ],
      "name": "AddedAllowedPatterns",
      "type": "event"
    },
    {
      "anonymous": false,
      "inputs": [
        {
          "indexed": false,
          "internalType": "address",
          "name": "sender",
          "type": "address"
        }
      ],
      "name": "AddedAllowedSenderOnchain",
      "type": "event"
    },
    {
      "anonymous": false,
      "inputs": [
        {
          "indexed": false,
          "internalType": "address[]",
          "name": "senders",
          "type": "address[]"
        }
      ],
      "name": "AddedAllowedSenders",
      "type": "event"
    },
    {
      "anonymous": false,
      "inputs": [
        {
          "indexed": false,
          "internalType": "uint256[]",
          "name": "functions",
          "type": "uint256[]"
        }
      ],
      "name": "AddedEnforcedFunctions",
      "type": "event"
    },
    {
      "anonymous": false,
      "inputs": [
        {
          "indexed": false,
          "internalType": "bytes8",
          "name": "oldRules",
          "type": "bytes8"
        },
        {
          "indexed": false,
          "internalType": "bytes8",
          "name": "newRules",
          "type": "bytes8"
        }
      ],
      "name": "ConfigureRules",
      "type": "event"
    },
    {
      "anonymous": false,
      "inputs": [],
      "name": "DefaultAdminDelayChangeCanceled",
      "type": "event"
    },
    {
      "anonymous": false,
      "inputs": [
        {
          "indexed": false,
          "internalType": "uint48",
          "name": "newDelay",
          "type": "uint48"
        },
        {
          "indexed": false,
          "internalType": "uint48",
          "name": "effectSchedule",
          "type": "uint48"
        }
      ],
      "name": "DefaultAdminDelayChangeScheduled",
      "type": "event"
    },
    {
      "anonymous": false,
      "inputs": [],
      "name": "DefaultAdminTransferCanceled",
      "type": "event"
    },
    {
      "anonymous": false,
      "inputs": [
        {
          "indexed": true,
          "internalType": "address",
          "name": "newAdmin",
          "type": "address"
        },
        {
          "indexed": false,
          "internalType": "uint48",
          "name": "acceptSchedule",
          "type": "uint48"
        }
      ],
      "name": "DefaultAdminTransferScheduled",
      "type": "event"
    },
    {
      "anonymous": false,
      "inputs": [
        {
          "indexed": false,
          "internalType": "uint216[]",
          "name": "patterns",
          "type": "uint216[]"
        }
      ],
      "name": "RemovedAllowedPatterns",
      "type": "event"
    },
    {
      "anonymous": false,
      "inputs": [
        {
          "indexed": false,
          "internalType": "address[]",
          "name": "senders",
          "type": "address[]"
        }
      ],
      "name": "RemovedAllowedSenders",
      "type": "event"
    },
    {
      "anonymous": false,
      "inputs": [
        {
          "indexed": false,
          "internalType": "uint256[]",
          "name": "functions",
          "type": "uint256[]"
        }
      ],
      "name": "RemovedEnforcedFunctions",
      "type": "event"
    },
    {
      "anonymous": false,
      "inputs": [
        {
          "indexed": true,
          "internalType": "bytes32",
          "name": "role",
          "type": "bytes32"
        },
        {
          "indexed": true,
          "internalType": "bytes32",
          "name": "previousAdminRole",
          "type": "bytes32"
        },
        {
          "indexed": true,
          "internalType": "bytes32",
          "name": "newAdminRole",
          "type": "bytes32"
        }
      ],
      "name": "RoleAdminChanged",
      "type": "event"
    },
    {
      "anonymous": false,
      "inputs": [
        {
          "indexed": true,
          "internalType": "bytes32",
          "name": "role",
          "type": "bytes32"
        },
        {
          "indexed": true,
          "internalType": "address",
          "name": "account",
          "type": "address"
        },
        {
          "indexed": true,
          "internalType": "address",
          "name": "sender",
          "type": "address"
        }
      ],
      "name": "RoleGranted",
      "type": "event"
    },
    {
      "anonymous": false,
      "inputs": [
        {
          "indexed": true,
          "internalType": "bytes32",
          "name": "role",
          "type": "bytes32"
        },
        {
          "indexed": true,
          "internalType": "address",
          "name": "account",
          "type": "address"
        },
        {
          "indexed": true,
          "internalType": "address",
          "name": "sender",
          "type": "address"
        }
      ],
      "name": "RoleRevoked",
      "type": "event"
    },
    {
      "anonymous": false,
      "inputs": [],
      "name": "TxStartedAtIrregularDepth",
      "type": "event"
    },
    {
      "inputs": [],
      "name": "DEFAULT_ADMIN_ROLE",
      "outputs": [
        {
          "internalType": "bytes32",
          "name": "",
          "type": "bytes32"
        }
      ],
      "stateMutability": "view",
      "type": "function"
    },
    {
      "inputs": [],
      "name": "OPERATOR_ROLE",
      "outputs": [
        {
          "internalType": "bytes32",
          "name": "",
          "type": "bytes32"
        }
      ],
      "stateMutability": "view",
      "type": "function"
    },
    {
      "inputs": [],
      "name": "SENDER_ADDER_ROLE",
      "outputs": [
        {
          "internalType": "bytes32",
          "name": "",
          "type": "bytes32"
        }
      ],
      "stateMutability": "view",
      "type": "function"
    },
    {
      "inputs": [],
      "name": "acceptDefaultAdminTransfer",
      "outputs": [],
      "stateMutability": "nonpayable",
      "type": "function"
    },
    {
      "inputs": [
        {
          "internalType": "uint216[]",
          "name": "patterns",
          "type": "uint216[]"
        }
      ],
      "name": "addAllowedPatterns",
      "outputs": [],
      "stateMutability": "nonpayable",
      "type": "function"
    },
    {
      "inputs": [
        {
          "internalType": "address[]",
          "name": "senders",
          "type": "address[]"
        }
      ],
      "name": "addAllowedSender",
      "outputs": [],
      "stateMutability": "nonpayable",
      "type": "function"
    },
    {
      "inputs": [
        {
          "internalType": "address",
          "name": "sender",
          "type": "address"
        }
      ],
      "name": "addAllowedSenderOnChain",
      "outputs": [],
      "stateMutability": "nonpayable",
      "type": "function"
    },
    {
      "inputs": [
        {
          "internalType": "address",
          "name": "newAdmin",
          "type": "address"
        }
      ],
      "name": "beginDefaultAdminTransfer",
      "outputs": [],
      "stateMutability": "nonpayable",
      "type": "function"
    },
    {
      "inputs": [],
      "name": "cancelDefaultAdminTransfer",
      "outputs": [],
      "stateMutability": "nonpayable",
      "type": "function"
    },
    {
      "inputs": [
        {
          "internalType": "uint48",
          "name": "newDelay",
          "type": "uint48"
        }
      ],
      "name": "changeDefaultAdminDelay",
      "outputs": [],
      "stateMutability": "nonpayable",
      "type": "function"
    },
    {
      "inputs": [
        {
          "internalType": "bytes8",
          "name": "rules",
          "type": "bytes8"
        }
      ],
      "name": "configureRules",
      "outputs": [],
      "stateMutability": "nonpayable",
      "type": "function"
    },
    {
      "inputs": [],
      "name": "deactivateAllRules",
      "outputs": [],
      "stateMutability": "nonpayable",
      "type": "function"
    },
    {
      "inputs": [],
      "name": "defaultAdmin",
      "outputs": [
        {
          "internalType": "address",
          "name": "",
          "type": "address"
        }
      ],
      "stateMutability": "view",
      "type": "function"
    },
    {
      "inputs": [],
      "name": "defaultAdminDelay",
      "outputs": [
        {
          "internalType": "uint48",
          "name": "",
          "type": "uint48"
        }
      ],
      "stateMutability": "view",
      "type": "function"
    },
    {
      "inputs": [],
      "name": "defaultAdminDelayIncreaseWait",
      "outputs": [
        {
          "internalType": "uint48",
          "name": "",
          "type": "uint48"
        }
      ],
      "stateMutability": "view",
      "type": "function"
    },
    {
      "inputs": [
        {
          "internalType": "uint256[]",
          "name": "functions",
          "type": "uint256[]"
        }
      ],
      "name": "excludeEnforcedFunctions",
      "outputs": [],
      "stateMutability": "nonpayable",
      "type": "function"
    },
    {
      "inputs": [
        {
          "internalType": "bytes32",
          "name": "role",
          "type": "bytes32"
        }
      ],
      "name": "getRoleAdmin",
      "outputs": [
        {
          "internalType": "bytes32",
          "name": "",
          "type": "bytes32"
        }
      ],
      "stateMutability": "view",
      "type": "function"
    },
    {
      "inputs": [
        {
          "internalType": "bytes32",
          "name": "role",
          "type": "bytes32"
        },
        {
          "internalType": "address",
          "name": "account",
          "type": "address"
        }
      ],
      "name": "grantRole",
      "outputs": [],
      "stateMutability": "nonpayable",
      "type": "function"
    },
    {
      "inputs": [
        {
          "internalType": "address",
          "name": "newSenderAdder",
          "type": "address"
        }
      ],
      "name": "grantSenderAdderRole",
      "outputs": [],
      "stateMutability": "nonpayable",
      "type": "function"
    },
    {
      "inputs": [
        {
          "internalType": "bytes32",
          "name": "role",
          "type": "bytes32"
        },
        {
          "internalType": "address",
          "name": "account",
          "type": "address"
        }
      ],
      "name": "hasRole",
      "outputs": [
        {
          "internalType": "bool",
          "name": "",
          "type": "bool"
        }
      ],
      "stateMutability": "view",
      "type": "function"
    },
    {
      "inputs": [
        {
          "internalType": "uint256[]",
          "name": "functions",
          "type": "uint256[]"
        }
      ],
      "name": "includeEnforcedFunctions",
      "outputs": [],
      "stateMutability": "nonpayable",
      "type": "function"
    },
    {
      "inputs": [],
      "name": "owner",
      "outputs": [
        {
          "internalType": "address",
          "name": "",
          "type": "address"
        }
      ],
      "stateMutability": "view",
      "type": "function"
    },
    {
      "inputs": [],
      "name": "pendingDefaultAdmin",
      "outputs": [
        {
          "internalType": "address",
          "name": "newAdmin",
          "type": "address"
        },
        {
          "internalType": "uint48",
          "name": "schedule",
          "type": "uint48"
        }
      ],
      "stateMutability": "view",
      "type": "function"
    },
    {
      "inputs": [],
      "name": "pendingDefaultAdminDelay",
      "outputs": [
        {
          "internalType": "uint48",
          "name": "newDelay",
          "type": "uint48"
        },
        {
          "internalType": "uint48",
          "name": "schedule",
          "type": "uint48"
        }
      ],
      "stateMutability": "view",
      "type": "function"
    },
    {
      "inputs": [
        {
          "internalType": "uint216[]",
          "name": "patterns",
          "type": "uint216[]"
        }
      ],
      "name": "removeAllowedPatterns",
      "outputs": [],
      "stateMutability": "nonpayable",
      "type": "function"
    },
    {
      "inputs": [
        {
          "internalType": "address[]",
          "name": "senders",
          "type": "address[]"
        }
      ],
      "name": "removeAllowedSender",
      "outputs": [],
      "stateMutability": "nonpayable",
      "type": "function"
    },
    {
      "inputs": [
        {
          "internalType": "bytes32",
          "name": "role",
          "type": "bytes32"
        },
        {
          "internalType": "address",
          "name": "account",
          "type": "address"
        }
      ],
      "name": "renounceRole",
      "outputs": [],
      "stateMutability": "nonpayable",
      "type": "function"
    },
    {
      "inputs": [
        {
          "internalType": "bytes32",
          "name": "role",
          "type": "bytes32"
        },
        {
          "internalType": "address",
          "name": "account",
          "type": "address"
        }
      ],
      "name": "revokeRole",
      "outputs": [],
      "stateMutability": "nonpayable",
      "type": "function"
    },
    {
      "inputs": [],
      "name": "rollbackDefaultAdminDelay",
      "outputs": [],
      "stateMutability": "nonpayable",
      "type": "function"
    },
    {
      "inputs": [
        {
          "internalType": "int256",
          "name": "num",
          "type": "int256"
        },
        {
          "internalType": "uint256",
          "name": "gas",
          "type": "uint256"
        },
        {
          "internalType": "bytes32[]",
          "name": "valuesBefore",
          "type": "bytes32[]"
        },
        {
          "internalType": "bytes32[]",
          "name": "valuesAfter",
          "type": "bytes32[]"
        }
      ],
      "name": "sphereXValidateInternalPost",
      "outputs": [],
      "stateMutability": "nonpayable",
      "type": "function"
    },
    {
      "inputs": [
        {
          "internalType": "int256",
          "name": "num",
          "type": "int256"
        }
      ],
      "name": "sphereXValidateInternalPre",
      "outputs": [
        {
          "internalType": "bytes32[]",
          "name": "result",
          "type": "bytes32[]"
        }
      ],
      "stateMutability": "nonpayable",
      "type": "function"
    },
    {
      "inputs": [
        {
          "internalType": "int256",
          "name": "num",
          "type": "int256"
        },
        {
          "internalType": "uint256",
          "name": "gas",
          "type": "uint256"
        },
        {
          "internalType": "bytes32[]",
          "name": "valuesBefore",
          "type": "bytes32[]"
        },
        {
          "internalType": "bytes32[]",
          "name": "valuesAfter",
          "type": "bytes32[]"
        }
      ],
      "name": "sphereXValidatePost",
      "outputs": [],
      "stateMutability": "nonpayable",
      "type": "function"
    },
    {
      "inputs": [
        {
          "internalType": "int256",
          "name": "num",
          "type": "int256"
        },
        {
          "internalType": "address",
          "name": "sender",
          "type": "address"
        },
        {
          "internalType": "bytes",
          "name": "data",
          "type": "bytes"
        }
      ],
      "name": "sphereXValidatePre",
      "outputs": [
        {
          "internalType": "bytes32[]",
          "name": "result",
          "type": "bytes32[]"
        }
      ],
      "stateMutability": "nonpayable",
      "type": "function"
    },
    {
      "inputs": [
        {
          "internalType": "bytes4",
          "name": "interfaceId",
          "type": "bytes4"
        }
      ],
      "name": "supportsInterface",
      "outputs": [
        {
          "internalType": "bool",
          "name": "",
          "type": "bool"
        }
      ],
      "stateMutability": "view",
      "type": "function"
    }
  ],
  "bytecode": "0x60806040526040518060600160405280600060c01b77ffffffffffffffffffffffffffffffffffffffffffffffff19168152602001600160801b6fffffffffffffffffffffffffffffffff19168152602001600060c01b77ffffffffffffffffffffffffffffffffffffffffffffffff1916815250600360008201518160000160006101000a81548167ffffffffffffffff021916908360c01c021790555060208201518160000160086101000a8154816fffffffffffffffffffffffffffffffff021916908360801c021790555060408201518160000160186101000a81548167ffffffffffffffff021916908360c01c021790555050506040518060800160405280600161ffff168152602001600061ffff16815260200160001515815260200160017affffffffffffffffffffffffffffffffffffffffffffffffffffff16815250600660008201518160000160006101000a81548161ffff021916908361ffff16021790555060208201518160000160026101000a81548161ffff021916908361ffff16021790555060408201518160000160046101000a81548160ff02191690831515021790555060608201518160000160056101000a8154817affffffffffffffffffffffffffffffffffffffffffffffffffffff02191690837affffffffffffffffffffffffffffffffffffffffffffffffffffff16021790555050503480156200021057600080fd5b506201518033600073ffffffffffffffffffffffffffffffffffffffff168173ffffffffffffffffffffffffffffffffffffffff16036200028b5760006040517fc22c8022000000000000000000000000000000000000000000000000000000008152600401620002829190620006ef565b60405180910390fd5b816001601a6101000a81548165ffffffffffff021916908365ffffffffffff160217905550620002c56000801b826200030060201b60201c565b505050620002fa7f97667070c54ef182b0f5858b034beac1b6f3089aa2d3188bb1e8929f4fa9b92933620003df60201b60201c565b62000754565b60008060001b8303620003c557600073ffffffffffffffffffffffffffffffffffffffff16620003356200043260201b60201c565b73ffffffffffffffffffffffffffffffffffffffff161462000383576040517f3fc3c27a00000000000000000000000000000000000000000000000000000000815260040160405180910390fd5b81600260006101000a81548173ffffffffffffffffffffffffffffffffffffffff021916908373ffffffffffffffffffffffffffffffffffffffff1602179055505b620003d783836200045c60201b60201c565b905092915050565b6000801b82036200041c576040517f3fc3c27a00000000000000000000000000000000000000000000000000000000815260040160405180910390fd5b6200042e82826200055f60201b60201c565b5050565b6000600260009054906101000a900473ffffffffffffffffffffffffffffffffffffffff16905090565b60006200047083836200059960201b60201c565b6200055457600160008085815260200190815260200160002060000160008473ffffffffffffffffffffffffffffffffffffffff1673ffffffffffffffffffffffffffffffffffffffff16815260200190815260200160002060006101000a81548160ff021916908315150217905550620004f06200060360201b60201c565b73ffffffffffffffffffffffffffffffffffffffff168273ffffffffffffffffffffffffffffffffffffffff16847f2f8788117e7eff1d82e926ec794901d17c78024a50270940304540a733656f0d60405160405180910390a46001905062000559565b600090505b92915050565b62000570826200060b60201b60201c565b62000581816200062a60201b60201c565b6200059383836200030060201b60201c565b50505050565b600080600084815260200190815260200160002060000160008373ffffffffffffffffffffffffffffffffffffffff1673ffffffffffffffffffffffffffffffffffffffff16815260200190815260200160002060009054906101000a900460ff16905092915050565b600033905090565b6000806000838152602001908152602001600020600101549050919050565b6200064b816200063f6200060360201b60201c565b6200064e60201b60201c565b50565b6200066082826200059960201b60201c565b620006a65780826040517fe2517d3f0000000000000000000000000000000000000000000000000000000081526004016200069d92919062000727565b60405180910390fd5b5050565b600073ffffffffffffffffffffffffffffffffffffffff82169050919050565b6000620006d782620006aa565b9050919050565b620006e981620006ca565b82525050565b6000602082019050620007066000830184620006de565b92915050565b6000819050919050565b62000721816200070c565b82525050565b60006040820190506200073e6000830185620006de565b6200074d602083018462000716565b9392505050565b61421780620007646000396000f3fe608060405234801561001057600080fd5b50600436106102065760003560e01c806384ef8ffc1161011a578063b8cd969c116100ad578063cf6eefb71161007c578063cf6eefb714610574578063d547741f14610593578063d602b9fd146105af578063f0bd9468146105b9578063f5b541a6146105d557610206565b8063b8cd969c14610514578063bb71fb7814610530578063cc8463c81461054c578063cefc14291461056a57610206565b80639345e164116100e95780639345e1641461049f578063a121be8a146104bb578063a1eda53c146104d7578063a217fddf146104f657610206565b806384ef8ffc146104035780638925ca5a146104215780638da5cb5b1461045157806391d148541461046f57610206565b80632f2ff15d1161019d57806345a4ba6b1161016c57806345a4ba6b14610389578063634e93da146103a5578063649a5ec7146103c15780637a44fd9d146103dd57806380a0b6da146103e757610206565b80632f2ff15d1461030357806336568abe1461031f5780633e8849431461033b5780634320d34f1461036b57610206565b806304e6279a116101d957806304e6279a146102915780630aa6220b146102ad57806311ede2e6146102b7578063248a9ca3146102d357610206565b806301ffc9a71461020b578063022d63fb1461023b578063024e4718146102595780630453906214610275575b600080fd5b61022560048036038101906102209190612f8d565b6105f3565b6040516102329190612fd5565b60405180910390f35b61024361066d565b6040516102509190613011565b60405180910390f35b610273600480360381019061026e9190613091565b610678565b005b61028f600480360381019061028a9190613134565b6107b7565b005b6102ab60048036038101906102a69190613243565b610904565b005b6102b56109f8565b005b6102d160048036038101906102cc9190613348565b610a10565b005b6102ed60048036038101906102e891906133ab565b610b0b565b6040516102fa91906133e7565b60405180910390f35b61031d60048036038101906103189190613402565b610b2a565b005b61033960048036038101906103349190613402565b610b74565b005b61035560048036038101906103509190613442565b610c89565b604051610362919061352d565b60405180910390f35b610373610d7a565b60405161038091906133e7565b60405180910390f35b6103a3600480360381019061039e9190613091565b610d9e565b005b6103bf60048036038101906103ba9190613348565b610edd565b005b6103db60048036038101906103d6919061357b565b610ef7565b005b6103e5610f11565b005b61040160048036038101906103fc9190613134565b610ff7565b005b61040b611144565b60405161041891906135b7565b60405180910390f35b61043b60048036038101906104369190613628565b61116e565b604051610448919061352d565b60405180910390f35b610459611262565b60405161046691906135b7565b60405180910390f35b61048960048036038101906104849190613402565b611271565b6040516104969190612fd5565b60405180910390f35b6104b960048036038101906104b491906136f2565b6112db565b005b6104d560048036038101906104d09190613348565b6113e0565b005b6104df611477565b6040516104ed92919061373f565b60405180910390f35b6104fe6114d7565b60405161050b91906133e7565b60405180910390f35b61052e600480360381019061052991906137c0565b6114de565b005b61054a600480360381019061054591906136f2565b6117cb565b005b6105546118d0565b6040516105619190613011565b60405180910390f35b61057261193e565b005b61057c6119d4565b60405161058a9291906137ed565b60405180910390f35b6105ad60048036038101906105a89190613402565b611a17565b005b6105b7611a61565b005b6105d360048036038101906105ce9190613243565b611a79565b005b6105dd611b6d565b6040516105ea91906133e7565b60405180910390f35b60007f53e41baa000000000000000000000000000000000000000000000000000000007bffffffffffffffffffffffffffffffffffffffffffffffffffffffff1916827bffffffffffffffffffffffffffffffffffffffffffffffffffffffff19161480610666575061066582611b91565b5b9050919050565b600062069780905090565b6106a27f97667070c54ef182b0f5858b034beac1b6f3089aa2d3188bb1e8929f4fa9b92933611271565b6106e1576040517f08c379a00000000000000000000000000000000000000000000000000000000081526004016106d890613873565b60405180910390fd5b60005b828290508110156107795760016004600085858581811061070857610707613893565b5b905060200201602081019061071d9190613348565b73ffffffffffffffffffffffffffffffffffffffff1673ffffffffffffffffffffffffffffffffffffffff16815260200190815260200160002060006101000a81548160ff0219169083151502179055508060010190506106e4565b507f0adaca063849be3759cb543670f0440af048e0710f921ab27965a7c73095228f82826040516107ab929190613985565b60405180910390a15050565b6107e17f97667070c54ef182b0f5858b034beac1b6f3089aa2d3188bb1e8929f4fa9b92933611271565b610820576040517f08c379a000000000000000000000000000000000000000000000000000000000815260040161081790613873565b60405180910390fd5b60005b828290508110156108c65760016005600085858581811061084757610846613893565b5b905060200201602081019061085c91906139fc565b7affffffffffffffffffffffffffffffffffffffffffffffffffffff167affffffffffffffffffffffffffffffffffffffffffffffffffffff16815260200190815260200160002060006101000a81548160ff021916908315150217905550806001019050610823565b507f12b3c3c8e9f31199ca2ce68c8eea4b65d2f3e2ac799aeea1e05e8876b814261b82826040516108f8929190613aec565b60405180910390a15050565b600060c01b77ffffffffffffffffffffffffffffffffffffffffffffffff1916600360000160009054906101000a900460c01b77ffffffffffffffffffffffffffffffffffffffffffffffff191603156109f057600460003373ffffffffffffffffffffffffffffffffffffffff1673ffffffffffffffffffffffffffffffffffffffff16815260200190815260200160002060009054906101000a900460ff166109e4576040517f08c379a00000000000000000000000000000000000000000000000000000000081526004016109db90613b5c565b60405180910390fd5b6109ef866000611c0b565b5b505050505050565b6000801b610a0581611f5a565b610a0d611f6e565b50565b610a3a7f460586411c358994ccf85e825f5c4a921e754a35d68c0fc3a73566e9474fc2bd33611271565b610a79576040517f08c379a0000000000000000000000000000000000000000000000000000000008152600401610a7090613bee565b60405180910390fd5b6001600460008373ffffffffffffffffffffffffffffffffffffffff1673ffffffffffffffffffffffffffffffffffffffff16815260200190815260200160002060006101000a81548160ff0219169083151502179055507fe952bc401d6fb727e0844c82c96c017ed11b5bc6a213b3b45a0413cd37cd272081604051610b0091906135b7565b60405180910390a150565b6000806000838152602001908152602001600020600101549050919050565b6000801b8203610b66576040517f3fc3c27a00000000000000000000000000000000000000000000000000000000815260040160405180910390fd5b610b708282611f7b565b5050565b6000801b82148015610bb85750610b89611144565b73ffffffffffffffffffffffffffffffffffffffff168173ffffffffffffffffffffffffffffffffffffffff16145b15610c7b57600080610bc86119d4565b91509150600073ffffffffffffffffffffffffffffffffffffffff168273ffffffffffffffffffffffffffffffffffffffff16141580610c0e5750610c0c81611f9d565b155b80610c1f5750610c1d81611fb2565b155b15610c6157806040517f19ca5ebb000000000000000000000000000000000000000000000000000000008152600401610c589190613011565b60405180910390fd5b600160146101000a81549065ffffffffffff021916905550505b610c858282611fc6565b5050565b6060600060c01b77ffffffffffffffffffffffffffffffffffffffffffffffff1916600360000160009054906101000a900460c01b77ffffffffffffffffffffffffffffffffffffffffffffffff19160315610d7557600460003373ffffffffffffffffffffffffffffffffffffffff1673ffffffffffffffffffffffffffffffffffffffff16815260200190815260200160002060009054906101000a900460ff16610d6b576040517f08c379a0000000000000000000000000000000000000000000000000000000008152600401610d6290613b5c565b60405180910390fd5b610d7482612041565b5b919050565b7f460586411c358994ccf85e825f5c4a921e754a35d68c0fc3a73566e9474fc2bd81565b610dc87f97667070c54ef182b0f5858b034beac1b6f3089aa2d3188bb1e8929f4fa9b92933611271565b610e07576040517f08c379a0000000000000000000000000000000000000000000000000000000008152600401610dfe90613873565b60405180910390fd5b60005b82829050811015610e9f57600060046000858585818110610e2e57610e2d613893565b5b9050602002016020810190610e439190613348565b73ffffffffffffffffffffffffffffffffffffffff1673ffffffffffffffffffffffffffffffffffffffff16815260200190815260200160002060006101000a81548160ff021916908315150217905550806001019050610e0a565b507f38bf8ff81f4ef76eb9b7ec6ceb193303f52abb512c5b36fa6f532c24fa974de18282604051610ed1929190613985565b60405180910390a15050565b6000801b610eea81611f5a565b610ef382612569565b5050565b6000801b610f0481611f5a565b610f0d826125e4565b5050565b610f3b7f97667070c54ef182b0f5858b034beac1b6f3089aa2d3188bb1e8929f4fa9b92933611271565b610f7a576040517f08c379a0000000000000000000000000000000000000000000000000000000008152600401610f7190613873565b60405180910390fd5b6000600360000160009054906101000a900460c01b9050600060c01b600360000160006101000a81548167ffffffffffffffff021916908360c01c02179055507f35d4bdc972b8d2c63d5243d90057ff81f618c8d583493cd73cdc182fd684d658816000604051610fec929190613c65565b60405180910390a150565b6110217f97667070c54ef182b0f5858b034beac1b6f3089aa2d3188bb1e8929f4fa9b92933611271565b611060576040517f08c379a000000000000000000000000000000000000000000000000000000000815260040161105790613873565b60405180910390fd5b60005b828290508110156111065760006005600085858581811061108757611086613893565b5b905060200201602081019061109c91906139fc565b7affffffffffffffffffffffffffffffffffffffffffffffffffffff167affffffffffffffffffffffffffffffffffffffffffffffffffffff16815260200190815260200160002060006101000a81548160ff021916908315150217905550806001019050611063565b507f60f43c5d70cdb8687221ed14f818268b280bd8e725bfd21a8afa20c3eac8859a8282604051611138929190613aec565b60405180910390a15050565b6000600260009054906101000a900473ffffffffffffffffffffffffffffffffffffffff16905090565b6060600060c01b77ffffffffffffffffffffffffffffffffffffffffffffffff1916600360000160009054906101000a900460c01b77ffffffffffffffffffffffffffffffffffffffffffffffff1916031561125a57600460003373ffffffffffffffffffffffffffffffffffffffff1673ffffffffffffffffffffffffffffffffffffffff16815260200190815260200160002060009054906101000a900460ff16611250576040517f08c379a000000000000000000000000000000000000000000000000000000000815260040161124790613b5c565b60405180910390fd5b61125985612041565b5b949350505050565b600061126c611144565b905090565b600080600084815260200190815260200160002060000160008373ffffffffffffffffffffffffffffffffffffffff1673ffffffffffffffffffffffffffffffffffffffff16815260200190815260200160002060009054906101000a900460ff16905092915050565b6113057f97667070c54ef182b0f5858b034beac1b6f3089aa2d3188bb1e8929f4fa9b92933611271565b611344576040517f08c379a000000000000000000000000000000000000000000000000000000000815260040161133b90613873565b60405180910390fd5b60005b828290508110156113a25760016007600085858581811061136b5761136a613893565b5b90506020020135815260200190815260200160002060006101000a81548160ff021916908315150217905550806001019050611347565b507f11be07affb43429b63c3bd52376c904c199b189f2e555127a6f814e9556ac91c82826040516113d4929190613d09565b60405180910390a15050565b61140a7f97667070c54ef182b0f5858b034beac1b6f3089aa2d3188bb1e8929f4fa9b92933611271565b611449576040517f08c379a000000000000000000000000000000000000000000000000000000000815260040161144090613873565b60405180910390fd5b6114737f460586411c358994ccf85e825f5c4a921e754a35d68c0fc3a73566e9474fc2bd8261264b565b5050565b6000806002601a9054906101000a900465ffffffffffff16905061149a81611f9d565b80156114ac57506114aa81611fb2565b155b6114b8576000806114cf565b600260149054906101000a900465ffffffffffff16815b915091509091565b6000801b81565b6115087f97667070c54ef182b0f5858b034beac1b6f3089aa2d3188bb1e8929f4fa9b92933611271565b611547576040517f08c379a000000000000000000000000000000000000000000000000000000000815260040161153e90613873565b60405180910390fd5b600260c01b600160c01b1777ffffffffffffffffffffffffffffffffffffffffffffffff191681600260c01b600160c01b171677ffffffffffffffffffffffffffffffffffffffffffffffff1916036115d5576040517f08c379a00000000000000000000000000000000000000000000000000000000081526004016115cc90613d9f565b60405180910390fd5b600460c01b600160c01b1777ffffffffffffffffffffffffffffffffffffffffffffffff191681600460c01b600160c01b171677ffffffffffffffffffffffffffffffffffffffffffffffff191603611663576040517f08c379a000000000000000000000000000000000000000000000000000000000815260040161165a90613d9f565b60405180910390fd5b600460c01b600260c01b1777ffffffffffffffffffffffffffffffffffffffffffffffff191681600460c01b600260c01b171677ffffffffffffffffffffffffffffffffffffffffffffffff1916036116f1576040517f08c379a00000000000000000000000000000000000000000000000000000000081526004016116e890613d9f565b60405180910390fd5b600460c01b60c01c67ffffffffffffffff168160c01c67ffffffffffffffff161115611752576040517f08c379a000000000000000000000000000000000000000000000000000000000815260040161174990613d9f565b60405180910390fd5b6000600360000160009054906101000a900460c01b905081600360000160006101000a81548167ffffffffffffffff021916908360c01c02179055507f35d4bdc972b8d2c63d5243d90057ff81f618c8d583493cd73cdc182fd684d65881836040516117bf929190613dbf565b60405180910390a15050565b6117f57f97667070c54ef182b0f5858b034beac1b6f3089aa2d3188bb1e8929f4fa9b92933611271565b611834576040517f08c379a000000000000000000000000000000000000000000000000000000000815260040161182b90613873565b60405180910390fd5b60005b828290508110156118925760006007600085858581811061185b5761185a613893565b5b90506020020135815260200190815260200160002060006101000a81548160ff021916908315150217905550806001019050611837565b507fc1c0149ec1954a2f836bd5fa0b9993ac2661ac4ee146bae185c6e723e4368c5582826040516118c4929190613d09565b60405180910390a15050565b6000806002601a9054906101000a900465ffffffffffff1690506118f381611f9d565b8015611904575061190381611fb2565b5b611922576001601a9054906101000a900465ffffffffffff16611938565b600260149054906101000a900465ffffffffffff165b91505090565b60006119486119d4565b5090508073ffffffffffffffffffffffffffffffffffffffff1661196a612718565b73ffffffffffffffffffffffffffffffffffffffff16146119c95761198d612718565b6040517fc22c80220000000000000000000000000000000000000000000000000000000081526004016119c091906135b7565b60405180910390fd5b6119d1612720565b50565b600080600160009054906101000a900473ffffffffffffffffffffffffffffffffffffffff16600160149054906101000a900465ffffffffffff16915091509091565b6000801b8203611a53576040517f3fc3c27a00000000000000000000000000000000000000000000000000000000815260040160405180910390fd5b611a5d82826127ef565b5050565b6000801b611a6e81611f5a565b611a76612811565b50565b600060c01b77ffffffffffffffffffffffffffffffffffffffffffffffff1916600360000160009054906101000a900460c01b77ffffffffffffffffffffffffffffffffffffffffffffffff19160315611b6557600460003373ffffffffffffffffffffffffffffffffffffffff1673ffffffffffffffffffffffffffffffffffffffff16815260200190815260200160002060009054906101000a900460ff16611b59576040517f08c379a0000000000000000000000000000000000000000000000000000000008152600401611b5090613b5c565b60405180910390fd5b611b64866001611c0b565b5b505050505050565b7f97667070c54ef182b0f5858b034beac1b6f3089aa2d3188bb1e8929f4fa9b92981565b60007f31498786000000000000000000000000000000000000000000000000000000007bffffffffffffffffffffffffffffffffffffffffffffffffffffffff1916827bffffffffffffffffffffffffffffffffffffffffffffffffffffffff19161480611c045750611c038261281e565b5b9050919050565b60008212611c4e576040517f08c379a0000000000000000000000000000000000000000000000000000000008152600401611c4590613e5a565b60405180910390fd5b600060066040518060800160405290816000820160009054906101000a900461ffff1661ffff1661ffff1681526020016000820160029054906101000a900461ffff1661ffff1661ffff1681526020016000820160049054906101000a900460ff161515151581526020016000820160059054906101000a90047affffffffffffffffffffffffffffffffffffffffffffffffffffff167affffffffffffffffffffffffffffffffffffffffffffffffffffff167affffffffffffffffffffffffffffffffffffffffffffffffffffff168152505090506000600360000160009054906101000a900460c01b9050838260600151604051602001611d53929190613e98565b6040516020818303038152906040528051906020012060281c82606001907affffffffffffffffffffffffffffffffffffffffffffffffffffff1690817affffffffffffffffffffffffffffffffffffffffffffffffffffff1681525050816000018051611dc090613efe565b61ffff16908161ffff16815250508280611de65750600161ffff16826000015161ffff16145b15611e2557611df481612898565b15611e1657816040015115611e1157611e1082606001516128c8565b5b611e24565b611e2382606001516128c8565b5b5b600161ffff16826000015161ffff16148015611e465750611e4581612965565b5b15611e9357600182606001907affffffffffffffffffffffffffffffffffffffffffffffffffffff1690817affffffffffffffffffffffffffffffffffffffffffffffffffffff16815250505b81600660008201518160000160006101000a81548161ffff021916908361ffff16021790555060208201518160000160026101000a81548161ffff021916908361ffff16021790555060408201518160000160046101000a81548160ff02191690831515021790555060608201518160000160056101000a8154817affffffffffffffffffffffffffffffffffffffffffffffffffffff02191690837affffffffffffffffffffffffffffffffffffffffffffffffffffff16021790555090505050505050565b611f6b81611f66612718565b612995565b50565b611f796000806129e6565b565b611f8482610b0b565b611f8d81611f5a565b611f97838361264b565b50505050565b6000808265ffffffffffff1614159050919050565b6000428265ffffffffffff16109050919050565b611fce612718565b73ffffffffffffffffffffffffffffffffffffffff168173ffffffffffffffffffffffffffffffffffffffff1614612032576040517f6697b23200000000000000000000000000000000000000000000000000000000815260040160405180910390fd5b61203c8282612ad6565b505050565b60008113612084576040517f08c379a000000000000000000000000000000000000000000000000000000000815260040161207b90613f99565b60405180910390fd5b600060066040518060800160405290816000820160009054906101000a900461ffff1661ffff1661ffff1681526020016000820160029054906101000a900461ffff1661ffff1661ffff1681526020016000820160049054906101000a900460ff161515151581526020016000820160059054906101000a90047affffffffffffffffffffffffffffffffffffffffffffffffffffff167affffffffffffffffffffffffffffffffffffffffffffffffffffff167affffffffffffffffffffffffffffffffffffffffffffffffffffff16815250509050600060036040518060600160405290816000820160009054906101000a900460c01b77ffffffffffffffffffffffffffffffffffffffffffffffff191677ffffffffffffffffffffffffffffffffffffffffffffffff191681526020016000820160089054906101000a900460801b6fffffffffffffffffffffffffffffffff19166fffffffffffffffffffffffffffffffff191681526020016000820160189054906101000a900460c01b77ffffffffffffffffffffffffffffffffffffffffffffffff191677ffffffffffffffffffffffffffffffffffffffffffffffff191681525050905060004332424460405160200161225c9493929190613fc8565b60405160208183030381529060405280519060200120905081602001516fffffffffffffffffffffffffffffffff1916816fffffffffffffffffffffffffffffffff1916146123b757600183606001907affffffffffffffffffffffffffffffffffffffffffffffffffffff1690817affffffffffffffffffffffffffffffffffffffffffffffffffffff16815250508082602001906fffffffffffffffffffffffffffffffff191690816fffffffffffffffffffffffffffffffff1916815250506000836040019015159081151581525050600161ffff16836000015161ffff1614612385577fde7e0b5e37408fa8528ed22c296deb2a2999d19087661129ce99e5115cce932860405160405180910390a16001836000019061ffff16908161ffff16815250505b8160200151600360000160086101000a8154816fffffffffffffffffffffffffffffffff021916908360801c02179055505b6123c48260000151612898565b156124105782604001511580156123f857506007600085815260200190815260200160002060009054906101000a900460ff165b1561240f5760018360400190151590811515815250505b5b838360600151604051602001612427929190613e98565b6040516020818303038152906040528051906020012060281c83606001907affffffffffffffffffffffffffffffffffffffffffffffffffffff1690817affffffffffffffffffffffffffffffffffffffffffffffffffffff16815250508260000180516124949061400d565b61ffff16908161ffff168152505082600660008201518160000160006101000a81548161ffff021916908361ffff16021790555060208201518160000160026101000a81548161ffff021916908361ffff16021790555060408201518160000160046101000a81548160ff02191690831515021790555060608201518160000160056101000a8154817affffffffffffffffffffffffffffffffffffffffffffffffffffff02191690837affffffffffffffffffffffffffffffffffffffffffffffffffffff16021790555090505050505050565b60006125736118d0565b61257c42612b59565b6125869190614037565b90506125928282612bb3565b8173ffffffffffffffffffffffffffffffffffffffff167f3377dc44241e779dd06afab5b788a35ca5f3b778836e2990bdb26a2a4b2e5ed6826040516125d89190613011565b60405180910390a25050565b60006125ef82612c66565b6125f842612b59565b6126029190614037565b905061260e82826129e6565b7ff1038c18cf84a56e432fdbfaf746924b7ea511dfe03a6506a0ceba4888788d9b828260405161263f92919061373f565b60405180910390a15050565b60008060001b830361270657600073ffffffffffffffffffffffffffffffffffffffff16612677611144565b73ffffffffffffffffffffffffffffffffffffffff16146126c4576040517f3fc3c27a00000000000000000000000000000000000000000000000000000000815260040160405180910390fd5b81600260006101000a81548173ffffffffffffffffffffffffffffffffffffffff021916908373ffffffffffffffffffffffffffffffffffffffff1602179055505b6127108383612cc5565b905092915050565b600033905090565b60008061272b6119d4565b9150915061273881611f9d565b158061274a575061274881611fb2565b155b1561278c57806040517f19ca5ebb0000000000000000000000000000000000000000000000000000000081526004016127839190613011565b60405180910390fd5b6127a06000801b61279b611144565b612ad6565b506127ae6000801b8361264b565b50600160006101000a81549073ffffffffffffffffffffffffffffffffffffffff0219169055600160146101000a81549065ffffffffffff02191690555050565b6127f882610b0b565b61280181611f5a565b61280b8383612ad6565b50505050565b61281c600080612bb3565b565b60007f7965db0b000000000000000000000000000000000000000000000000000000007bffffffffffffffffffffffffffffffffffffffffffffffffffffffff1916827bffffffffffffffffffffffffffffffffffffffffffffffffffffffff19161480612891575061289082612db6565b5b9050919050565b60008060c01b600460c01b831677ffffffffffffffffffffffffffffffffffffffffffffffff1916119050919050565b60056000827affffffffffffffffffffffffffffffffffffffffffffffffffffff167affffffffffffffffffffffffffffffffffffffffffffffffffffff16815260200190815260200160002060009054906101000a900460ff16612962576040517f08c379a0000000000000000000000000000000000000000000000000000000008152600401612959906140e3565b60405180910390fd5b50565b60008060c01b600160c01b831677ffffffffffffffffffffffffffffffffffffffffffffffff1916119050919050565b61299f8282611271565b6129e25780826040517fe2517d3f0000000000000000000000000000000000000000000000000000000081526004016129d9929190614103565b60405180910390fd5b5050565b60006002601a9054906101000a900465ffffffffffff169050612a0881611f9d565b15612a8757612a1681611fb2565b15612a5957600260149054906101000a900465ffffffffffff166001601a6101000a81548165ffffffffffff021916908365ffffffffffff160217905550612a86565b7f2b1fa2edafe6f7b9e97c1a9e0c3660e645beb2dcaa2d45bdbf9beaf5472e1ec560405160405180910390a15b5b82600260146101000a81548165ffffffffffff021916908365ffffffffffff160217905550816002601a6101000a81548165ffffffffffff021916908365ffffffffffff160217905550505050565b60008060001b83148015612b1c5750612aed611144565b73ffffffffffffffffffffffffffffffffffffffff168273ffffffffffffffffffffffffffffffffffffffff16145b15612b4757600260006101000a81549073ffffffffffffffffffffffffffffffffffffffff02191690555b612b518383612e20565b905092915050565b600065ffffffffffff8016821115612bab576030826040517f6dfcc650000000000000000000000000000000000000000000000000000000008152600401612ba292919061417e565b60405180910390fd5b819050919050565b6000612bbd6119d4565b91505082600160006101000a81548173ffffffffffffffffffffffffffffffffffffffff021916908373ffffffffffffffffffffffffffffffffffffffff16021790555081600160146101000a81548165ffffffffffff021916908365ffffffffffff160217905550612c2f81611f9d565b15612c61577f8886ebfc4259abdbc16601dd8fb5678e54878f47b3c34836cfc51154a960510960405160405180910390a15b505050565b600080612c716118d0565b90508065ffffffffffff168365ffffffffffff1611612c9b578281612c9691906141a7565b612cbd565b612cbc8365ffffffffffff16612caf61066d565b65ffffffffffff16612f12565b5b915050919050565b6000612cd18383611271565b612dab57600160008085815260200190815260200160002060000160008473ffffffffffffffffffffffffffffffffffffffff1673ffffffffffffffffffffffffffffffffffffffff16815260200190815260200160002060006101000a81548160ff021916908315150217905550612d48612718565b73ffffffffffffffffffffffffffffffffffffffff168273ffffffffffffffffffffffffffffffffffffffff16847f2f8788117e7eff1d82e926ec794901d17c78024a50270940304540a733656f0d60405160405180910390a460019050612db0565b600090505b92915050565b60007f01ffc9a7000000000000000000000000000000000000000000000000000000007bffffffffffffffffffffffffffffffffffffffffffffffffffffffff1916827bffffffffffffffffffffffffffffffffffffffffffffffffffffffff1916149050919050565b6000612e2c8383611271565b15612f0757600080600085815260200190815260200160002060000160008473ffffffffffffffffffffffffffffffffffffffff1673ffffffffffffffffffffffffffffffffffffffff16815260200190815260200160002060006101000a81548160ff021916908315150217905550612ea4612718565b73ffffffffffffffffffffffffffffffffffffffff168273ffffffffffffffffffffffffffffffffffffffff16847ff6391f5c32d9c69d2a47ea670b442974b53935d1edc7fd64eb21e047a839171b60405160405180910390a460019050612f0c565b600090505b92915050565b6000818310612f215781612f23565b825b905092915050565b600080fd5b600080fd5b60007fffffffff0000000000000000000000000000000000000000000000000000000082169050919050565b612f6a81612f35565b8114612f7557600080fd5b50565b600081359050612f8781612f61565b92915050565b600060208284031215612fa357612fa2612f2b565b5b6000612fb184828501612f78565b91505092915050565b60008115159050919050565b612fcf81612fba565b82525050565b6000602082019050612fea6000830184612fc6565b92915050565b600065ffffffffffff82169050919050565b61300b81612ff0565b82525050565b60006020820190506130266000830184613002565b92915050565b600080fd5b600080fd5b600080fd5b60008083601f8401126130515761305061302c565b5b8235905067ffffffffffffffff81111561306e5761306d613031565b5b60208301915083602082028301111561308a57613089613036565b5b9250929050565b600080602083850312156130a8576130a7612f2b565b5b600083013567ffffffffffffffff8111156130c6576130c5612f30565b5b6130d28582860161303b565b92509250509250929050565b60008083601f8401126130f4576130f361302c565b5b8235905067ffffffffffffffff81111561311157613110613031565b5b60208301915083602082028301111561312d5761312c613036565b5b9250929050565b6000806020838503121561314b5761314a612f2b565b5b600083013567ffffffffffffffff81111561316957613168612f30565b5b613175858286016130de565b92509250509250929050565b6000819050919050565b61319481613181565b811461319f57600080fd5b50565b6000813590506131b18161318b565b92915050565b6000819050919050565b6131ca816131b7565b81146131d557600080fd5b50565b6000813590506131e7816131c1565b92915050565b60008083601f8401126132035761320261302c565b5b8235905067ffffffffffffffff8111156132205761321f613031565b5b60208301915083602082028301111561323c5761323b613036565b5b9250929050565b600080600080600080608087890312156132605761325f612f2b565b5b600061326e89828a016131a2565b965050602061327f89828a016131d8565b955050604087013567ffffffffffffffff8111156132a05761329f612f30565b5b6132ac89828a016131ed565b9450945050606087013567ffffffffffffffff8111156132cf576132ce612f30565b5b6132db89828a016131ed565b92509250509295509295509295565b600073ffffffffffffffffffffffffffffffffffffffff82169050919050565b6000613315826132ea565b9050919050565b6133258161330a565b811461333057600080fd5b50565b6000813590506133428161331c565b92915050565b60006020828403121561335e5761335d612f2b565b5b600061336c84828501613333565b91505092915050565b6000819050919050565b61338881613375565b811461339357600080fd5b50565b6000813590506133a58161337f565b92915050565b6000602082840312156133c1576133c0612f2b565b5b60006133cf84828501613396565b91505092915050565b6133e181613375565b82525050565b60006020820190506133fc60008301846133d8565b92915050565b6000806040838503121561341957613418612f2b565b5b600061342785828601613396565b925050602061343885828601613333565b9150509250929050565b60006020828403121561345857613457612f2b565b5b6000613466848285016131a2565b91505092915050565b600081519050919050565b600082825260208201905092915050565b6000819050602082019050919050565b6134a481613375565b82525050565b60006134b6838361349b565b60208301905092915050565b6000602082019050919050565b60006134da8261346f565b6134e4818561347a565b93506134ef8361348b565b8060005b8381101561352057815161350788826134aa565b9750613512836134c2565b9250506001810190506134f3565b5085935050505092915050565b6000602082019050818103600083015261354781846134cf565b905092915050565b61355881612ff0565b811461356357600080fd5b50565b6000813590506135758161354f565b92915050565b60006020828403121561359157613590612f2b565b5b600061359f84828501613566565b91505092915050565b6135b18161330a565b82525050565b60006020820190506135cc60008301846135a8565b92915050565b60008083601f8401126135e8576135e761302c565b5b8235905067ffffffffffffffff81111561360557613604613031565b5b60208301915083600182028301111561362157613620613036565b5b9250929050565b6000806000806060858703121561364257613641612f2b565b5b6000613650878288016131a2565b945050602061366187828801613333565b935050604085013567ffffffffffffffff81111561368257613681612f30565b5b61368e878288016135d2565b925092505092959194509250565b60008083601f8401126136b2576136b161302c565b5b8235905067ffffffffffffffff8111156136cf576136ce613031565b5b6020830191508360208202830111156136eb576136ea613036565b5b9250929050565b6000806020838503121561370957613708612f2b565b5b600083013567ffffffffffffffff81111561372757613726612f30565b5b6137338582860161369c565b92509250509250929050565b60006040820190506137546000830185613002565b6137616020830184613002565b9392505050565b60007fffffffffffffffff00000000000000000000000000000000000000000000000082169050919050565b61379d81613768565b81146137a857600080fd5b50565b6000813590506137ba81613794565b92915050565b6000602082840312156137d6576137d5612f2b565b5b60006137e4848285016137ab565b91505092915050565b600060408201905061380260008301856135a8565b61380f6020830184613002565b9392505050565b600082825260208201905092915050565b7f53706865726558206572726f723a206f70657261746f72207265717569726564600082015250565b600061385d602083613816565b915061386882613827565b602082019050919050565b6000602082019050818103600083015261388c81613850565b9050919050565b7f4e487b7100000000000000000000000000000000000000000000000000000000600052603260045260246000fd5b600082825260208201905092915050565b6000819050919050565b6138e68161330a565b82525050565b60006138f883836138dd565b60208301905092915050565b60006139136020840184613333565b905092915050565b6000602082019050919050565b600061393483856138c2565b935061393f826138d3565b8060005b85811015613978576139558284613904565b61395f88826138ec565b975061396a8361391b565b925050600181019050613943565b5085925050509392505050565b600060208201905081810360008301526139a0818486613928565b90509392505050565b60007affffffffffffffffffffffffffffffffffffffffffffffffffffff82169050919050565b6139d9816139a9565b81146139e457600080fd5b50565b6000813590506139f6816139d0565b92915050565b600060208284031215613a1257613a11612f2b565b5b6000613a20848285016139e7565b91505092915050565b600082825260208201905092915050565b6000819050919050565b613a4d816139a9565b82525050565b6000613a5f8383613a44565b60208301905092915050565b6000613a7a60208401846139e7565b905092915050565b6000602082019050919050565b6000613a9b8385613a29565b9350613aa682613a3a565b8060005b85811015613adf57613abc8284613a6b565b613ac68882613a53565b9750613ad183613a82565b925050600181019050613aaa565b5085925050509392505050565b60006020820190508181036000830152613b07818486613a8f565b90509392505050565b7f53706865726558206572726f723a20646973616c6c6f7765642073656e646572600082015250565b6000613b46602083613816565b9150613b5182613b10565b602082019050919050565b60006020820190508181036000830152613b7581613b39565b9050919050565b7f53706865726558206572726f723a2073656e646572206164646572207265717560008201527f6972656400000000000000000000000000000000000000000000000000000000602082015250565b6000613bd8602483613816565b9150613be382613b7c565b604082019050919050565b60006020820190508181036000830152613c0781613bcb565b9050919050565b613c1781613768565b82525050565b6000819050919050565b60008160c01b9050919050565b6000613c4f613c4a613c4584613c1d565b613c27565b613768565b9050919050565b613c5f81613c34565b82525050565b6000604082019050613c7a6000830185613c0e565b613c876020830184613c56565b9392505050565b600082825260208201905092915050565b600080fd5b82818337505050565b6000613cb98385613c8e565b93507f07ffffffffffffffffffffffffffffffffffffffffffffffffffffffffffffff831115613cec57613ceb613c9f565b5b602083029250613cfd838584613ca4565b82840190509392505050565b60006020820190508181036000830152613d24818486613cad565b90509392505050565b7f53706865726558206572726f723a20696c6c6567616c2072756c657320636f6d60008201527f62696e6174696f6e000000000000000000000000000000000000000000000000602082015250565b6000613d89602883613816565b9150613d9482613d2d565b604082019050919050565b60006020820190508181036000830152613db881613d7c565b9050919050565b6000604082019050613dd46000830185613c0e565b613de16020830184613c0e565b9392505050565b7f53706865726558206572726f723a206578706563746564206e6567617469766560008201527f206e756d00000000000000000000000000000000000000000000000000000000602082015250565b6000613e44602483613816565b9150613e4f82613de8565b604082019050919050565b60006020820190508181036000830152613e7381613e37565b9050919050565b613e8381613181565b82525050565b613e92816139a9565b82525050565b6000604082019050613ead6000830185613e7a565b613eba6020830184613e89565b9392505050565b7f4e487b7100000000000000000000000000000000000000000000000000000000600052601160045260246000fd5b600061ffff82169050919050565b6000613f0982613ef0565b915060008203613f1c57613f1b613ec1565b5b600182039050919050565b7f53706865726558206572726f723a20657870656374656420706f73697469766560008201527f206e756d00000000000000000000000000000000000000000000000000000000602082015250565b6000613f83602483613816565b9150613f8e82613f27565b604082019050919050565b60006020820190508181036000830152613fb281613f76565b9050919050565b613fc2816131b7565b82525050565b6000608082019050613fdd6000830187613fb9565b613fea60208301866135a8565b613ff76040830185613fb9565b6140046060830184613fb9565b95945050505050565b600061401882613ef0565b915061ffff820361402c5761402b613ec1565b5b600182019050919050565b600061404282612ff0565b915061404d83612ff0565b9250828201905065ffffffffffff81111561406b5761406a613ec1565b5b92915050565b7f53706865726558206572726f723a20646973616c6c6f7765642074782070617460008201527f7465726e00000000000000000000000000000000000000000000000000000000602082015250565b60006140cd602483613816565b91506140d882614071565b604082019050919050565b600060208201905081810360008301526140fc816140c0565b9050919050565b600060408201905061411860008301856135a8565b61412560208301846133d8565b9392505050565b6000819050919050565b600060ff82169050919050565b6000819050919050565b600061416861416361415e8461412c565b614143565b614136565b9050919050565b6141788161414d565b82525050565b6000604082019050614193600083018561416f565b6141a06020830184613fb9565b9392505050565b60006141b282612ff0565b91506141bd83612ff0565b9250828203905065ffffffffffff8111156141db576141da613ec1565b5b9291505056fea264697066735822122090ad48e9f578d6ee6517b46388cf9765d699d6d814f6dac9880a11353170544a64736f6c63430008180033",
  "linkReferences": {},
  "deployedLinkReferences": {}
}